:100000000C94ED0D0C94150E0C94150E0C94150E0D
:100010000C94150E0C94150E0C94150E0C94150ED4
:100020000C94150E0C94150E0C94150E0C94150EC4
:100030000C94150E0C94150E0C94150E0C94150EB4
:100040000C9470120C94150E0C943E120C94181211
:100050000C94150E0C94150E0C94150E0C94150E94
:100060000C94150E0C94150E0000000025002800BD
:100070002B0000000000240027002A0011013B088B
:100080003A1A2CA80CD7D69D01C7000032020201F3
:100090001112122222666969595899998800000044
:1000A00000F8B413513551511901003210181808D5
:1000B0001818080000000000000000000000000008
:1000C00013144412000000000000FFFFFFFFFFFFB9
:1000D000FFFFFFFFFFFFFFFFFFFFFFFFFFF000003D
:1000E00007FFFFFFFF0000000FFFFFFFF800000009
:1000F0001FFFFFFFE001FF803FFFFFFFC00FFF80FA
:100100007FFFFFFF803FFF807FFFFFFB00780180C4
:100110007FFFFFF7004FFD807FFFFFEE00BFFD80F8
:100120007FFFFFEE007FFD807FFFFFEC01FFFD8082
:100130007FFFFFDC01FFFD807FFFFFDC01FFFD8013
:100140007FFFFFDC01FFFD807FFFFFDC01FFFD8003
:100150007FFFFFDC01FFFD807FFFFFDC01FFFD80F3
:100160007FFFFFDC00FFFD807FFFFFDE00FFFD80E3
:100170007FFFFFCE007FFD807FFFFFEF007FFD80D0
:100180007FFFFFEF801FFD807FFFFFE7C00FFD8037
:100190007FFFFFF7E000FD807FFFFFFBF000000026
:1001A00007FFFFFDFE00000001FFFFFEFFE0000073
:1001B00000FFFFFF3FFFFF807C7FFFFFCFFFFF803F
:1001C0007F3FFFFFF07FFD8007FFFFFFFF80018083
:1001D00079FFFFFFFFFFFD807FFFFFFFFFFFFD8037
:1001E0007FFFFFFFFFFFFD807FFFFFFFFFFFFD8021
:1001F0007FFFFFFFFFFFFD807FFFFFFFFFFFFD8011
:100200007FFFFFFFFFFFFD807FFFFFFFFFFFFD8000
:100210007FFFFFFFFFFFFD807FFFFFFFFFFFFD80F0
:100220007FFFFFFFFFFFFD807FFFFFFFFFFFFD80E0
:100230007FFFFFFFFFFFFD807FFFFFFFFFFFFD80D0
:100240007FFFFFFFFFFFFD807FFFFFFFFFFFFD80C0
:100250007FFFFFFFFFFFFD807FFFFFFFFFFFF90034
:100260001FFFFFFFFFFFF2000FFFFFFFFFFFE40094
:1002700007FFFFFFFFFFE80003FFFFFFFFFFDFFFB8
:10028000FFFFFFFFFFFFBFFFFFFFFFFFFFFF0000BC
:100290000FFFFFFFFFFFFFFFFFFFFFFFFFFFFFFF5E
:1002A000FFFFFFFFFFFFFFFFFFFFFFFFFF80001FBC
:1002B000FFFFFFFFFDC0003FFFFFFFFFFEE0007FED
:1002C000FFFFFFFFFF7000FFFFFFFFFFFFB801FF11
:1002D000FFFFFFFFFF9800FFFFFFFFFFFFB000FFE2
:1002E000FFFFFFFFFFB000FFFFFFFFFFFF30087FB2
:1002F000FFFFFFFFFF60087FFFFFFFFFFF600C7F36
:10030000FFFFFFFFFEC00C3FFFFFFFFFFEC00C3FE3
:10031000FFFFFFFFFCC02E1FFFFFFFFFFD80361F0A
:10032000FFFFFFFFFD80371FFFFFFFFFFB00730F85
:100330007FFFFFFF7B007B0CFFFFFFFF33007B8114
:10034000DFFFFFFB1600FD839FFFFFF60600FD8722
:100350000FFFFFF60001FCC20FFFFFF60001FEC019
:1003600007FFFFEC0001FEE007FFFFEC0003FE606B
:1003700003FFFFD80003FCC01FFFFFDFF003F9807D
:100380007FFFFFBFF007F380FFFFFF803003F70020
:10039000FFFFFFFF2001EE007FFFFFFF6000DC0892
:1003A0007FFFFFFF600058187FFFFFFEC010381C62
:1003B0003FFFFFFEC018106C3FFFFFFEC01C00ECAB
:1003C0003FFFFFFD802E00EC1FFFFFFD803701F691
:1003D0001FFFFFF9803B83F60FFFFFFB007D83F6D5
:1003E0000FFFFFFB007DC7F70FFFFFF700FEEFFBDE
:1003F00007FFFFF600FF6FFB07FFFFF600FF3FFB65
:1004000003FFFFEC01FFBFFB01FFFFEC01FFFFFB60
:1004100001FFFFCC01FFFFFB00FFFFD803FFFFFB45
:10042000007FFF9803FFFFF6003FFF2001FFFFF46E
:10043000001FFE40007FFFEC000FFC80003FFFE844
:100440000003FB00001FFFD00001F7FFFFFFFFBF0D
:10045000FFFFEFFFFFFFFF3FFFFF8000007FFF0078
:100460000007FFFFFFFFFFFFFFFFFFFFFFFFFFFF93
:10047000FFFFFFFFFFFFFFFFFFFFFFF00000000097
:1004800007FFFFF8000000000FFFFF3C0000000026
:100490001FFFFFBC003FFF007FFFFFDE00FFFF00EC
:1004A000FFFFFFEF03C00700FFFFFFE7067FF70036
:1004B000FFFFFFF785FFF700FFFFFFFB8FFFF70050
:1004C000FFFFFFF99FFFF700FFFFFFFDDFFFF700D2
:1004D000FFFFFFFDFFFFF700FFFFFFFEFFFFF7003D
:1004E000FFFFFFFEFFFFF700FFFFFFFEFFFFF7002C
:1004F000FFFFFFFFFF7FF700FFFFFFFFFB7FF7001E
:10050000FFFFFFFFFB3FF700FFFFFFFFFB1FF700B1
:10051000FFFFFFFFFB0FF700FFFFFFFFFB07F700E9
:10052000FFFFFFFFFB03F700FFFFFFFFFB000000E3
:100530001FFFFFFFFB00000007FFFFFFFB000000A5
:1005400003FFFFFFFB03FF00F1FFFFFFFB07FF00BF
:10055000FCFFFFFFFB0FFF001EFFFFFFFB1007006C
:10056000E7FFFFFFFB3FF700F3FFFFFFFB7FF70015
:10057000FFFFFFFFFBFFF700FFFFFFFFFBFFF700A1
:10058000FFFFFFFFFBFFF700FFFFFFFFFFFFF7008D
:10059000FFFFFFFFFFFFF700FFFFFFFFFFFFF70079
:1005A000FFFFFFFFFFFFF700FFFFFFFFFFFFF70069
:1005B000FFFFFFFFFFFFF700FFFFFFFFFFFFF70059
:1005C000FFFFFFFFFFFFF700FFFFFFFFFFFFF70049
:1005D000FFFFFFFFFFFFF700FFFFFFFFFFFFF70039
:1005E000FFFFFFFFFFFFF700FFFFFFFFFFFFF6002A
:1005F0007FFFFFFFFFFFEC003FFFFFFFFFFFC80093
:100600000FFFFFFFFFFF900007FFFFFFFFFFA000AE
:1006100003FFFFFFFFFF7FFFFFFFFFFFFFFEFFFF67
:10062000FFFFFFFFFFFCFFFFFFFFFFFFFFF80000E2
:1006300007FFFFFFFFFFFFFFFFFFFFFFFFF007FFC9
:10064000FFFFFFFFFF8000FFFFFFFFFFFE00003FF7
:10065000FFFFFFF9F003F00FFFFFFFDC001FFC07B7
:10066000FFFFFFDC003FFF03FFFFFFEE00781F816D
:10067000FFFFFFE600E7E7C0FFFFFFF7019FF3C0C2
:100680007FFFFFF3017FFDE03FFFFFFB83FFFCE007
:100690003FFFFFFD83FFFEF01FFFFFFDC7FFFF7061
:1006A0000FFFFFFEC7FFFF700FFFFFFEE7FFFF38E2
:1006B00007FFFFFF67FFFFB807FFFFFF7FFFFFB8E0
:1006C00007FFFFFFBFFFFFB803FFFFFFBFFFFFB83C
:1006D00003FFFFFFFFFFFFDC03FFFFFFFFFFFFDC68
:1006E00003FFFFFFFFFFFFDC01FFFFFFFFFFFFDC5A
:1006F00001FFFFFFFFFFFFDC01FFFFFFFFFFFFDC4C
:1007000001FFFFFFFFFFFFDC01FFFFFFFFFFFFDC3B
:1007100001FFFFFFFFFFFFDC01FFFFFFFFFFFFDC2B
:1007200001FFFFFFFFFFFFDC01FFFFFFFFFFFFDC1B
:1007300001FFFFFFFFFFFFDC01FFFFFFFFFFFFDC0B
:1007400001FFFFFFFFFFFFDC01FFFFFFFFFFFFDCFB
:1007500003FFFFFF3FFFFFB803FFFFFE3FFFFFB8B0
:1007600003FFFFEE3FFFFFB803FFFFE63FFFFFB8C9
:1007700003FFFFE63FFFFF7007FFFFF61FFFFF705D
:1007800007FFFFF61FFFFF700FFFFFF71FFFFEE0E1
:100790000FFFFFF71FFFFEE00FFFFFF30FFFFDC08E
:1007A0001FFFFFFB8FFFFDC03FFFFFFB87FFFB80AD
:1007B0003FFFFFF983FFF7807FFFFFFDC3FFEF00DF
:1007C000FFFFFFFCE1FFDC01FFFFFFFE707FF8038E
:1007D000FFFFFFFF781FE007FFFFFFFFBC00001FC8
:1007E000FFFFFFFFCF00007FFFFFFFFFE7E007DF16
:1007F000FFFFFFFFF1FFFF7FFFFFFFFFFC3FF1FF68
:10080000FFFFFFFFFFC00FFFFFFFFFFFF7FFFFFF2F
:10081000FFFFFC0FF07FFFFFDFFFFFFFFFFFFFFF8A
:10082000FF00FFFFFFF1FFFFFFFFFFF803F07FFF77
:10083000FFC7FFFFFFFFFFFFFFFC003FFFFFF0FFD1
:10084000FFFFFFFFF801F07FFFFFC3FFFFFFFFFF88
:10085000FFFFF8000FFFFFF07FFFFFFFFFF801F041
:100860007FFFFFC1FFFFFFFFFFFFFFF00007FFFF5C
:10087000F07FFFFFFFFFFFC1F07FFFFFC1FFFFFF22
:10088000FFFFFFFFE03E03FFFFF07FFFFFFFFFFFE3
:10089000C1F07FFFFFC1FFFFFFFFFFFFFFE0FF830E
:1008A0000003001FC0E1FF01FC00307F00FC007F5F
:1008B00001F83FE0E0C3C0FFC10003001F8021FC3E
:1008C000007C00307E003C007C00783FE0C043F1BB
:1008D000FFC10003001F0001F8003C00307C001C39
:1008E0000078003C1FC1E003FFFFE00003001E0092
:1008F00001F0001C003078001C0070381C1FC1E0A3
:1009000003FFFFE007FFF07E0701E07C0FC1F078F6
:100910001E0FC1FC7C1C1FC1E003FFFFE083FFF042
:100920007E0F81E0FE0FC1F0783F3FC1FFFC1E0F3C
:1009300083FE03FFFFE0C1FFF07E0FC1C0FE07C1D1
:10094000F0783FFFC1FFF01E0F83FF03FFFFE0E0E1
:10095000FFF07E0FC1C1FF07C1F0780FFFC1FF801C
:100960001F0F87FF83FFFFE0F07FF07E0FC1C1FF05
:1009700007C1F07800FFC1FC003F0707FF83FFFFBE
:10098000E0F83FF07E0FC1C1FF07C1F078001FC142
:10099000F8007F0707FF83FFFFE0FC1FF07E0FC119
:1009A000C1FF07C1F078300FC1F003FF870FFF834D
:1009B000FDFFE0FE0FF07E0FC1C1FF07C1F0783EE2
:1009C00007C1F01FFF820FFF83E1FFC1FF07F07E29
:1009D0000FC1C0FE07C1F0783F07C1F07FFFC20F13
:1009E000FF83C0FFC1FF83F07E0FC1E0FE0FC1F0A7
:1009F000783F07C1F07E3FC21FFF83E07F83FFC1C6
:100A0000F07E0FC1E07C0FC1F0780E07C1F03C0F03
:100A1000C01FFF83E03E030001007E0FC1F0001FF6
:100A2000C1F078000401F8001FE03FFF83F00007E9
:100A30000001007E0FC1F8003FC1F078000C01F802
:100A4000001FE03FFF83F8000F000100FE0FC1FC14
:100A5000007FC1F078601C03FC007FE03FFF83FC57
:100A6000003F000181FE0FC1FF01FFC1F070783E21
:100A700007FF01FFF07FFF83FF80FFFFFFFFFFFF06
:100A8000FFFFFFFFFFFFFFFFFFFFFFFFFFF07FFF05
:100A9000FFFFFFFFFFFFFFFFFFFFFFFFFFFFFFFF66
:100AA000FFFFFFFFFFFFF83FFFFFFFFFFFE1FE1F1C
:100AB000C0FFFFC3FC3F81FFFFFFFFFFFFFFFFF809
:100AC0001FFFFFFFFFFFC0FC0F007FFF81F81E002C
:100AD000FFFFFFFFFFFFFFFFF801FFFFFFFFFF8C9E
:100AE00078C73E7FFF18F18E7CFFFFFFFFFFFFFFFF
:100AF000FFFC01FFFFFFFFFF9E79E67FFFFF3CF356
:100B0000CCFFFFFFFF7FFFFFFFFFDE01FFFFFFFFC7
:100B1000FF3F33F27FFFFE7E67E4FFFFFFFC3FFFF6
:100B2000FFFFFF0F81FFFFFFFFFF3F33F27FF1E287
:100B30007E67E4FFFFFFF81FFFFFFFFE07FFFFFFD9
:100B4000FFFFFF3F33F27FF9E67E67E4FFFFFFF030
:100B500007FFFFFFFC01FFFFFFFFFFFF3F33F23FF7
:100B6000FCCE7E67E47FFFFFE003FFFFFFF800FF9E
:100B7000FFFFFFFFFF3333333FFC0E6666667FFFE8
:100B8000FF8001FFFFFFE0007FFFFFFFFFFF333328
:100B9000331FFE1E6666663FFFFF0000FFFFFFC0BB
:100BA000003FFFFFFFFFFF3F33F38FFF3E7E67E70E
:100BB0001FFFFE00003FFFFF80000FFFFFFFFFFF52
:100BC0003F33F3C7FF3E7E67E78FFFFC00001FFF48
:100BD000FF000007FFFFFFFFFF3F33F3E3FE1E7E32
:100BE00067E7C7FFF000800FFFFC002003FFFFFF57
:100BF000FFFF3F33F3F1FE1E7E67E7E3FFE001C036
:100C000007FFF8007001FFFFFFFFFF9E79E7F8FC88
:100C1000CF3CF3CFF1FFC007E001FFF000F8007F09
:100C2000FFFFFFFF8C78C7FC78C718F18FF8FF0033
:100C30000FF000FFE003FC003FFFFFFFFFC0FC0ED2
:100C40000079E781F81C00FE001FFC007FC007FF51
:100C5000001FFFFFFFFFE1FE1E0071E3C3FC3C002D
:100C6000FC003FFE003FE00FFF800FFFFFFFFFFF94
:100C7000FFFFFFFFFFFFFFFFFFF800FFFF001FF078
:100C80001FFFC003FFFFFFFFFFFFFFFFFFFFFFFF8F
:100C9000FFFFE001FFFF8007FC3FFFE001FFFFFFD8
:100CA000FFFFFFFFFFFFFFFFFFFFFFC003FFFFE0AE
:100CB00003FEFFFFF800FFFFFFFFFFFFFFFFFFF84E
:100CC00003FFFFFF8007FFFFF001FFFFFFFC007F36
:100CD000FFFFFFFFFFFFFFFFF003FFFFFF001FFF0E
:100CE000FFF800FFFFFFFE001FFFFFFFFFFFFFFFFA
:100CF000FFE003FFFFFC003FFFFFFC003FFFFFFFA3
:100D0000000FFFFFFF11E1FC23C1E1E3C3FFF80087
:100D10003FFFFFFE001FFFFFFF8007FFFFFF01C037
:100D2000780380E3E380FFF0003FFFFFFE000FFF4A
:100D3000FFFF8003FFFFFFE18E78C31E61E31CFF0E
:100D4000E0003FFFFFFE0007FFFFFF8000FFFFFF07
:100D5000F18E31E30FE0031C7F80003FFFFFFE00B8
:100D600001FFFFFF80007FFFFFF18031E301F0030F
:100D7000007F00003FFFFFFE0000FFFFFF80003FFD
:100D8000FFFFF18031E310F803007E00003FFFFF1A
:100D9000FE00007FFFFF80001FFFFFF1FE31E31C1C
:100DA0007FE3FC7C00003FFFFFFE00003FFFFF8071
:100DB000000FFFFFF1FE31E31C7FE3FC7000003FFA
:100DC000FFFFFE00000FFFFF800003FFFFF18C78A4
:100DD000C30C7FE318F000003FFFFFFE00000FFF91
:100DE000FF800003FFFFF1C0780300FFE380F00005
:100DF000003FFFFFFE00000FFFFF800003FFFFF139
:100E0000E1FC2231FFE3C3F000003FFFFFFE0000E2
:100E10000FFFFF800003FFFFFFFFFFE3FFFFFFFF68
:100E2000F000003FFFFFFE00000FFFFF800003FF08
:100E3000FFFFFFFFE3FFFFFFFFF000003FFFFFFEAC
:100E400000000FFFFF800003FFFFFFFFFFE3FFFF36
:100E5000FFFFF000003FFFFFFE00000FFFFF8000DC
:100E600003FFFFFFFFFFE3FFFFFFFFF000003FFF77
:100E7000FFFE00000FFFFF800003FFFFF83FFFFFB2
:100E8000FFFFFFFFF000003FFFFFFE00000FFFFF2E
:100E9000800003FFFFF01FFFFFFFFFFFFFF00000D8
:100EA0003FFFFFFE00000FFFFF800003FFFFF18FF9
:100EB000FFFFFFFFFFFFFFFFFFFFFFFFFE00000F31
:100EC000FFFFFFFFFFFFFFE3C7FFFFFFFFFFFFFF86
:100ED000FFFFFFFFFFFE00000FFFFFFFFFFFFFFF11
:100EE000E7E7FFFFFFFFFFFFFFFFFFFFFFFFFE0042
:100EF000000FFFFFFFFFFFFFFFC4E7FFFFFFFFFF44
:100F0000FFFFFFFFFFFFFFFE00000FFFFFFFFFFFE0
:100F1000FFFFCCE79FFFFFFFFFFFFFFFFFFFFFFF8C
:100F2000FE00000FFFFFFFFFFFFFFFCFC607FFFF21
:100F3000FFC0000000000000007E00000FC00000A5
:100F400000000000CFCE01FFFFFFC0000000000046
:100F500000007E00000FC0000000000000CF8E7077
:100F6000FFFFFFC0000000000000007E00000FC077
:100F7000000000000000CF8E7C3FFFFFC00000009B
:100F8000000000007E00000FC0000000000000E72D
:100F90001E7E7FFFFFC0000000000000007E0000FA
:100FA0000FC0000000000000E03E7C67FFFFC000B3
:100FB0000000000000007E00000FC00000000000E4
:100FC00000F87E1CE1FFFFC0000000000000007E72
:100FD00000000FC0000000000000FFF808F0FFFF55
:100FE000C0000000000000007E00000FC0000000F4
:100FF000000000FFE081FC3FFFFFFFFFFFFFFFFF5E
:10100000FFFE00000FC0000000000000FF83E1FEB3
:101010001FFFFFFFFFFFFFFFFFFFFE00000FC000ED
:101020000000000000FFEFF19F87FFFFFFFFFFFFC1
:10103000FFFFFFFE00000FC0000000000000FFFFE8
:10104000F38FCFFFFFFFFFFFFFFFFFFFFE00000F4B
:10105000C0000000000000BFFFE3C38CFFFFFFFFE4
:10106000FFFFFFFFFFFE00000FC0000000000000B8
:10107000DFFFE7F09C3FC0000000000000007E00A2
:10108000000FC0000000000000E9FFC7F81C1FC0EF
:10109000000000000000007E00000FC00000000003
:1010A0000000EBFFEFFE3C07C00000000000000066
:1010B0007E00000FC0000000000000EBDFFCFE3EE1
:1010C00043C0000000000000007E00000FC00000D0
:1010D00000000000E7AFFC3E3E70C00000000000D2
:1010E00000007E00000FC0000000000000E777FE57
:1010F0001E7E79C0000000000000007E00000FC0CE
:10110000000000000000F777FF847E7FC000000031
:10111000000000007E00000FC0000000000000F78B
:1011200073FFE0FE7FFFFFFFFFFFFFFFFFFE0000FA
:101130000FC0000000000000EFB3FFF0FE7FFFFFD4
:10114000FFFFFFFFFFFFFE00000FC00000000000D8
:1011500000EFB3BFFDFE3FFFFFFFFFFFFFFFFFFEFE
:1011600000000FC0000000000000EFB3BFFF9F3F72
:10117000FFFFFFFFFFFFFFFFFE00000FC0000000AA
:10118000000000EFC37FFF873FFFFFFFFFFFFFFF70
:10119000FFFE00000FC0000000000000DFE37DFF45
:1011A000C33FFFFFFFFFFFFFFFFFFE00000FC00078
:1011B0000000000000DDFB79FFF03FC000000000F0
:1011C0000000007E00000FC0000000000000EDF7EE
:1011D0007BFFFC3FC0000000000000007E00000F0D
:1011E000C0000000000000FEF77BDFFE3FC00000F3
:1011F00000000000007E00000FC0000000000000A2
:10120000FEEF73DFFFBFC0000000000000007E00A3
:10121000000FC0000000000000FF6F73BFFFFFC0A1
:10122000000000000000007E00000FC00000000071
:101230000000FF9F6BBC7FFFC000000000000000AB
:101240007E00000FC0000000000000FFFF6B7BBFAE
:10125000FFFFFFFFFFFFFFFFFFFE00000FC00000CA
:1012600000000000FFFF5B7BDE0FFFFFFFFFFFFFC3
:10127000FFFFFE00000FC0000000000000FFFF5A4B
:1012800077DDF3FFFFFFFFFFFFFFFFFE00000FC052
:10129000000000000000FFFF3AF7DDF1FFFFFFFF55
:1012A000FFFFFFFFFE00000FC0000000000000FF76
:1012B000FF38F7DBF5FFFFFFFFFFFFFFFFFE00003A
:1012C0000FC0000000000000FFFFF9F7DBF6FFFF92
:1012D000FFFFFFFFFFFFFE00000FC0000000000047
:1012E00000FFFFF9F7DBF6C0000000000000007E01
:1012F00000000FC0000000000000FFFFFBF7DDF75B
:1013000040000000000000007E00000FC000000050
:10131000000000FFFFFFF7DDE740000000000000D5
:10132000007E00000FC0000000000000FFFFFFF77C
:10133000BEE740000000000000007E00000FC0007B
:101340000000000000FFFFFFF7BE6F40000000003C
:101350000000007E00000FC0000000000000FFFF42
:10136000FFF77F2F40000000000000007E00000F0C
:10137000C0000000000000FFFFFFFA7FC740000030
:1013800000000000007E00000FC000000000000010
:10139000FFFFFFFCFFE4FFFFFFFFFFFFFFFFFE007B
:1013A000000FC0000000000000FFFFFFFFFFEEFF86
:1013B000FFFFFFFFFFFFFFFE00000FC00000000067
:1013C0000000FFFFFFFFFFDFFFFFFFFFFFFFFFFF4B
:1013D000FE00000FC0000000000000FFFFFFFFFF45
:1013E000DFFFFFFFFFFFFFFFFFFE00000FC0000059
:1013F00000000000FFFFFFFFFFDFFFFFFFFFFFFF19
:10140000FFFFFE00000FC0000000000000FFFFFF14
:10141000FFFFDFFFFFFFFFFFFFFFFFFE00000FC02A
:10142000000000000000FFFFFFFFFFDFC000000022
:10143000000000007E00000FC0000000000000FF60
:10144000FFFFFFFFDFC0000000000000007E000083
:101450000FC0000000000000FFFFFFFFFFDFC00023
:101460000000000000007E00000FC000000000002F
:1014700000FFFFFFFFFFDFC0000000000000007E54
:1014800000000FC0000000000000FFFFFFFFFFFF93
:10149000C0000000000000007E00000FC00000003F
:1014A000000000FFFFFFFFFFFFC000000000000082
:1014B000007E00000FC0000000000000FFFFFFFFE3
:1014C000FFFFC0000000000000007E00000FC00011
:1014D0000000000000FFFFFFFFFFFFFFFFFFFFFF17
:1014E000FFFFFFFE00000FFFFFFFFFFFFFFFFFFFFB
:1014F000FFFFFFFFFFFFFFFFFFFFFFFFFE00000FEB
:10150000FFFFFFFFFFFFFF00033333F0003FFFFF4C
:10151000FFFFFFFFFFFE00000FFFFFFFFFFFFFFFCA
:1015200000033333F0003FFFFFFFFFFFFFFFFE002C
:10153000000FFFFFFFFFFFFFFF3FF3C3F333FF3F4A
:10154000FFFFFFFFFFFFFFFE00000FFFFFFFFFFF9A
:10155000FFFF3FF3C3F333FF3FFFF000003FFFFF08
:10156000FE00000FFFFF800003FFFF30333F3FF31B
:10157000033FFFF000003FFFFFFE00000FFFFF8072
:101580000003FFFF30333F3FF3033FFFF000003F16
:10159000FFFFFE00000FFFFF800003FFFF3033F06E
:1015A0003033033FFFF000003FFFFFFE00000FFF5E
:1015B000FF800003FFFF3033F03033033FFFF000C4
:1015C000003FFFFFFE00000FFFFF800003FFFF3022
:1015D0003330FCF3033FFFF000003FFFFFFE00004D
:1015E0000FFFFF800003FFFF303330FCF3033FFFAA
:1015F000F000003FFFFFFE00000FFFFF800003FF31
:10160000FF3FF30C0C33FF3FFFF000003FFFFFFEF6
:1016100000000FFFFF800003FFFF3FF30C0C33FFC0
:101620003FFFF000003FFFFFFE00000FFFFF8000C4
:1016300003FFFF0003333330003FFFF000003FFFA4
:10164000FFFE00000FFFFF800003FFFF00033333A6
:1016500030003FFFFC00003FFFFFFE00003FFFFFA8
:1016600080000FFFFFFFFF3FC0FFFFFFFFFE0000F6
:101670003FFFFFFE00007FFFFF80001FFFFFFFFF17
:101680003FC0FFFFFFFFFF00003FFFFFFE0000FF26
:10169000FFFF80003FFFFFCCCCFCCC03003FFFFFEF
:1016A00080003FFFFFFE0001FFFFFF80007FFFFF84
:1016B000CCCCFCCC03003FFFFFE0003FFFFFFE006F
:1016C00007FFFFFF8000FFFFFFCFCC3C33CC3C3F48
:1016D000FFFFF0003FFFFFFE000FFFFFFF8003FF53
:1016E000FFFFCFCC3C33CC3C3FFFFFF8003FFFFF78
:1016F000FE001FFFFFFF8007FFFFFF0C3FC0F3004E
:1017000003FFFFFFFC003FFFFFFC003FFFFFFF0068
:101710000FFFFFFF0C3FC0F30003FFFFFFFF001FA1
:10172000FFFFF800FFFFFFFE001FFFFFFF3FF03F3E
:101730003FFFF03FFFFFFF8007FFFFF001FFFFFFCC
:10174000FC007FFFFFFF3FF03F3FFFF03FFFFFFF49
:10175000C003FFFFE003FEFFFFF800FFFFFFFF03F2
:1017600000C030303F3FFFFFFFE001FFFF8007FC7C
:101770007FFFE001FFFFFFFF0300C030303F3FFF6E
:10178000FFFFF800FFFF001FF03FFFC003FFFFFF58
:10179000FFCCCC3FFC3F0F3FFFFFFFFC003FFE00B4
:1017A0003FE00FFF800FFFFFFFFFCCCC3FFC3F0F60
:1017B0003FFFFFFFFE001FFC007FC007FF001FFF71
:1017C000FFFFFF0C03CC00033F3FFFFFFFFF000FB5
:1017D000F000FFE003FE003FFFFFFFFF0C03CC0023
:1017E000033F3FFFFFFFFFC007E001FFF001F800EC
:1017F0007FFFFFFFFF3CFC03C03FCF3FFFFFFFFF2A
:10180000E001C007FFF8007001FFFFFFFFFF3CFC95
:1018100003C03FCF3FFFFFFFFFF000800FFFFC0042
:101820002003FFFFFFFFFFF30030C330C33FFFFF84
:10183000FFFFFC00001FFFFF000007FFFFFFFFFF8F
:10184000F30030C330C33FFFFFFFFFFE00003FFF48
:10185000FF80000FFFFFFFFFFFF03F0C3F3FFFFF48
:10186000FFFFFFFFFF0000FFFFFFC0003FFFFFFF84
:10187000FFFFF03F0C3F3FFFFFFFFFFFFFFF800137
:10188000FFFFFFE0007FFFFFFFFFFF003330F0307E
:10189000003FFFFFFFFFFFE003FFFFFFF800FFFF38
:1018A000FFFFFFFF003330F030003FFFFFFFFFFF7F
:1018B000F007FFFFFFFC01FFFFFFFFFFFFCC3F33FF
:1018C00033F3FF3FFFFFFFFFFFF81FFFFFFFFE07A0
:1018D000FFFFFFFFFFFFCC3F3333F3FF3FFFFFFF6F
:1018E000FFFFFC3FFFFFFFFF0FFFFFFFFFFFFF00BA
:1018F00000003033033FFFFFFFFFFFFF7FFFFFFFCD
:10190000FFDFFFFFFFFFFFFF0000003033033FFF5B
:10191000FFFFFFFFFFFFFFFFFFFFFFFFFFFFFFFFD7
:10192000FF0330FCFF33033FFFFFFFFFFFFFFFFF1D
:10193000FFFFFFFFFFFFFFFFFFFF0330FCFF33034D
:101940003FFFFFFFFFFFFFFFFFFFFFFFFFFFFFFF67
:10195000FFFFFF33CCC30333033FFFFFFFFFFFFF56
:10196000FFFFFFFFFFFFFFFFFFFFFFFF33CCC303BE
:1019700033033FFFFFFFFFFFFFFFFFFFFFFFFFFFFF
:10198000FFFFFFFFFF3C0003C333FF3FFFFFFFFFED
:10199000FFFFFFFFFFFFFFFFFFFFFFFFFFFF3C0019
:1019A00003C333FF3FFFFFFFFFFFFFFFFFFFFFFF0B
:1019B000FFFFFFFFFFFFFF0003FF0C30003FFFFFB3
:1019C000FFFFFFFFFFFFFFFFFFFFFFFFFFFFFFFF27
:1019D0000003FF0C30003FFFFFFFFFFFFFFFFFFF93
:1019E000FFFFFFFFFFFFFFFFFFFFFFFFFFFFFFFF07
:1019F000FFFFFFFFFFFFFFFFFFFFFFFFFFFFFFFFF7
:101A0000FFFFFFFFFFFFFFFFFFFFFFFFFFFFFFFFE6
:101A1000FFFFFFFFFFFFFFFFFFFFFFC7FC07E3FF25
:101A20000FFFFE1FE7FE1FE1FC0FE1FC3F81F00FFF
:101A3000CFC00E0FC7FC07E0FC07FFF80FE7F80F59
:101A400080F80780F01F00E00FCFC00C03C3FFE752
:101A5000E4FCE7FFF9CFC3F9CF9CF1F79CF39E3E7E
:101A6000C7CF87FFCDF1CBFFE7E7F8E3FFF1C7C3AF
:101A7000F1C71C73FF1C638E7FCFCF87FFCFF9C9DF
:101A8000FFE7E7F9F3FFF3E7C3F3E73E73FF3E67D2
:101A9000CE7FCFCF87FFCFFCCDFE07E7F9F3FFF373
:101AA000E781F3E73E73FF3E67CE7FCFCF03FFCFE3
:101AB000FCCCFC07E7F933FFF26799F2672671FF68
:101AC0002664CE3FC7CF33E00FFCCE78F7E7F9337B
:101AD000FFF26799F2672679FF2664CF3FE00F3364
:101AE000E00FFCCE79FFE7F9F3E0F3E799F3E73E87
:101AF0007CFF3E67CF9FF00F33FFCFFCCF39FFE76E
:101B0000F9F3E0F3E700F3E73E7E7F3E67CFCFFFD8
:101B1000CE01FFCFFC0039FFE7F9F3FFF3E700F355
:101B2000E73E7F3F3E67CFE7FFCE01FFCFFC0039A6
:101B3000FFE7F8E3FFF1C73CF1C71C7F9F1C638FF1
:101B4000F3FFCE79FFCFF9CFFCFBE7FCE7FFF9CF3E
:101B50003CF9CF9CFFCF9CF39FF9FFCE79FFCDF1ED
:101B6000CFFC0300FC07FFF80E7E780F80F00780A3
:101B7000F01E00FFCCFCFFCC03CFFF0700FF1FFFD0
:101B8000FE3E7E7E3FE3F007E3FC7E00FFCCFCFFE1
:101B9000CE0F0000000023002600290004040404E6
:101BA0000404040402020202020203030303030307
:101BB00001020408102040800102040810200102E4
:101BC00004081020000000080002010000030407C0
:101BD0000000000000000000BA1211241FBECFEF69
:101BE000D8E0DEBFCDBF22E0A8E3B1E001C01D9286
:101BF000AF32B207E1F711E0A0E0B1E0E4ECFBE2C4
:101C000002C005900D92A833B107D9F71DE0CDEEC3
:101C1000DDE004C02197FE010E94D515CC3ED1071E
:101C2000C9F70E94F9120C94E0150C940000EAE444
:101C3000F1E0A089B18982E08C93A485B5851C92DE
:101C4000A685B78580E18C93108EA489B58986E03E
:101C50008C93A289B3898C9180618C93A289B3897A
:101C60008C9188608C93A289B3898C9180688C93C5
:101C70000288F389E02D80818F7D80830895CF9243
:101C8000DF92EF92FF920F931F93CF93DF936C013C
:101C90007A018B01C0E0D0E0CE15DF0589F0D801D4
:101CA0006D918D01D601ED91FC910190F081E02DB7
:101CB000C6010995892B11F47E0102C02196ECCF53
:101CC000C701DF91CF911F910F91FF90EF90DF90AF
:101CD000CF900895089580E090E00895FC01538D21
:101CE000448D252F30E0842F90E0821B930B5417F6
:101CF00010F0CF96089501970895FC01918D828D83
:101D0000981761F0828DDF01A80FB11D5D968C914F
:101D1000928D9F5F9F73928F90E008958FEF9FEF5A
:101D20000895FC01918D828D981731F0828DE80F16
:101D3000F11D858D90E008958FEF9FEF0895FC01D0
:101D4000918D228D892F90E0805C9F4F821B91099D
:101D50008F73992708958AE491E00E949F0E21E0F5
:101D6000892B09F420E0822F0895FC01848DDF0186
:101D7000A80FB11DA35ABF4F2C91848D90E00196FE
:101D80008F739927848FA689B7892C93A089B189ED
:101D90008C9180648C93938D848D981306C00288F7
:101DA000F389E02D80818F7D80830895EF92FF92EB
:101DB0000F931F93CF93DF93EC0181E0888F9B8D6E
:101DC0008C8D981305C0E889F989808185FD24C030
:101DD000F62E0B8D10E00F5F1F4F0F731127E02EB3
:101DE0008C8DE8120CC00FB607FCFACFE889F98990
:101DF000808185FFF5CFCE010E94B50EF1CF8B8D8E
:101E0000FE01E80FF11DE35AFF4FF0820B8FEA89C4
:101E1000FB898081806207C0EE89FF896083E88941
:101E2000F98980818064808381E090E0DF91CF91A7
:101E30001F910F91FF90EF900895CF93DF93EC01E6
:101E4000888D8823C9F0EA89FB89808185FD05C0DA
:101E5000A889B9898C9186FD0FC00FB607FCF5CF14
:101E6000808185FFF2CFA889B9898C9185FFEDCF5C
:101E7000CE010E94B50EE7CFDF91CF91089580E0AB
:101E800090E0892B29F00E94AB0E81110C94000088
:101E90000895833081F028F4813099F08230A1F0E8
:101EA00008958730A9F08830B9F08430D1F480915A
:101EB00080008F7D03C0809180008F7780938000A9
:101EC000089584B58F7702C084B58F7D84BD089551
:101ED0008091B0008F7703C08091B0008F7D809398
:101EE000B0000895CF93DF93E7ECFBE18491E3EB3F
:101EF000FBE1D491EFE9FBE1C491CC2391F0811196
:101F00000E94490FEC2FF0E0EE0FFF1FEE56F44E4B
:101F1000A591B491EC91ED2381E090E021F480E073
:101F200002C080E090E0DF91CF9108951F93CF939E
:101F3000DF93282F30E0F901EC53F44E8491F9013E
:101F4000E055F44ED491F901E456F44EC491CC23FB
:101F5000C9F0162F81110E94490FEC2FF0E0EE0F0F
:101F6000FF1FE859FF4FA591B4918FB7F894111155
:101F700005C09C91ED2FE095E92302C0EC91ED2B7B
:101F8000EC938FBFDF91CF911F910895CF93DF9393
:101F900090E0FC01E055F44E2491FC01E456F44E2F
:101FA0008491882361F190E0880F991FFC01EE581D
:101FB000FF4FC591D491FC01E859FF4FA591B49111
:101FC000611109C09FB7F894888120958223888386
:101FD000EC912E230BC0623061F49FB7F8943881E6
:101FE000822F809583238883EC912E2B2C939FBF87
:101FF00006C08FB7F894E8812E2B28838FBFDF911E
:10200000CF9108953FB7F89480913D0190913E01A2
:10201000A0913F01B091400126B5A89B05C02F3F7C
:1020200019F00196A11DB11D3FBFBA2FA92F982FFE
:102030008827820F911DA11DB11DBC01CD0142E079
:10204000660F771F881F991F4A95D1F708958F92C1
:102050009F92AF92BF92CF92DF92EF92FF926B016D
:102060007C010E9402104B015C01C114D104E10407
:10207000F104F1F00E940210DC01CB0188199909EA
:10208000AA09BB09883E9340A105B10570F321E080
:10209000C21AD108E108F10888EE880E83E0981E84
:1020A000A11CB11CC114D104E104F10419F7DDCF66
:1020B000FF90EF90DF90CF90BF90AF909F908F9068
:1020C00008952FB7F8946091390170913A01809189
:1020D0003B0190913C012FBF08958EBD00000DB4CF
:1020E00007FEFDCF8EB50895CF93C82F0E94720FC3
:1020F000892BE1F760E08AE00E94960F60E085E0BE
:102100000E94960F82E20E946D1061E085E00E94BD
:10211000960F8C2F0E946D1061E08AE0CF910C9495
:10212000960F7F928F929F92AF92BF92CF92DF9243
:10213000EF92FF920F931F93CF93DF938B017A015E
:10214000C82FD0E0279683E0D595C7958A95E1F70B
:102150007C2E0E94720F892BE1F760E08AE00E94DA
:10216000960F60E085E00E94960F84E20E946D1059
:1021700061E085E00E94960F812C912CA12CB12C5E
:10218000A016B106B1F0C12CD12CC71460F4F60131
:10219000E80DF91DEE0DFF1D84910E946D108FEF6B
:1021A000C81AD80AF2CF8C0E9D1E8FEFA81AB80A53
:1021B000E7CF61E08AE0DF91CF911F910F91FF900F
:1021C000EF90DF90CF90BF90AF909F908F907F90D7
:1021D0000C94960F0F931F93CF93DF93EC01162F60
:1021E00060E08AE00E94960F60E085E00E94960F12
:1021F000FE0184910E946D1061E085E00E94960FBF
:1022000091E0911751F001E0090FFE01E90FF11D76
:1022100084910E946D10902FF4CF61E08AE0DF91ED
:10222000CF911F910F910C94960FCF92DF92EF9266
:10223000FF921F93CF93DF931F92CDB7DEB7F82E97
:10224000162F60E08AE099830E94960F60E085E097
:102250000E94960FCF2C9981D92EF60181916F01A2
:102260000E946D10115061E085E00E94960F76018A
:102270008E2D8C19811730F4F70181917F010E9416
:102280006D10F6CF61E08AE00F90DF91CF911F9142
:10229000FF90EF90DF90CF900C94960FFF920F93EA
:1022A0001F93CF93DF93CDB7DEB727970FB6F89480
:1022B000DEBF0FBECDBFF82E8A0184E48983FA8287
:1022C0006B8363E0CE0101962E833F830E9415113C
:1022D00085E489830A831B832E812C833F813D8380
:1022E00065E0CE0101960E9415118EE48983FA8281
:1022F00062E0CE0101960E9415118FE489830A8362
:102300001B8363E0CE0101960E94151127960FB63C
:10231000F894DEBF0FBECDBFDF91CF911F910F911B
:10232000FF900895CF93C82F60E08AE00E94960F37
:1023300060E085E00E94960F8C2F0E946D1061E096
:102340008AE0CF910C94960F84E00E94741080E292
:102350000E9492118FEF0C94921180EC0E947410E5
:1023600080E20E9492110E94720F892BE1F708957A
:102370000E94DB156115710579F0FB0101900020C9
:10238000E9F73197AF01461B570BDC01ED91FC914A
:102390000280F381E02D099480E090E008954F924F
:1023A0005F926F927F92EF92FF920F931F93CF9362
:1023B000DF93CDB7DEB7A1970FB6F894DEBF0FBE9F
:1023C000CDBF7C01FA01CB0119A2223008F42AE02A
:1023D0008E010F5D1F4F422E512C612C712CBF01BD
:1023E000A30192010E94B315F901CA01015011091C
:1023F0006A3014F4605D01C0695CD8016C93232BD2
:10240000242B252B61F7B801C7010E94BA11A196B0
:102410000FB6F894DEBF0FBECDBFDF91CF911F91F5
:102420000F91FF90EF907F906F905F904F90089585
:102430001F920F920FB60F9211242F933F934F9339
:102440005F936F937F938F939F93AF93BF93EF931C
:10245000FF938AE491E00E94B50EFF91EF91BF9146
:10246000AF919F918F917F916F915F914F913F912C
:102470002F910F900FBE0F901F9018951F920F92E3
:102480000FB60F9211242F938F939F93EF93FF9387
:10249000E0915A01F0915B018081E0916001F0913F
:1024A000610182FD12C09081809163018F5F8F7303
:1024B00020916401821751F0E0916301F0E0E65B46
:1024C000FE4F958F8093630101C08081FF91EF9152
:1024D0009F918F912F910F900FBE0F901F90189585
:1024E0001F920F920FB60F9211242F933F938F9349
:1024F0009F93AF93BF938091390190913A01A0913E
:102500003B01B0913C013091380123E0230F2D377E
:1025100020F40196A11DB11D05C026E8230F0296E7
:10252000A11DB11D209338018093390190933A0188
:10253000A0933B01B0933C0180913D0190913E01FD
:10254000A0913F01B09140010196A11DB11D809362
:102550003D0190933E01A0933F01B0934001BF9194
:10256000AF919F918F913F912F910F900FBE0F9040
:102570001F901895EAE4F1E01382128288EE93E04E
:10258000A0E0B0E084839583A683B78384E091E0E4
:102590009183808385EC90E09587848784EC90E03C
:1025A0009787868780EC90E0918B808B81EC90E020
:1025B000938B828B82EC90E0958B848B86EC90E001
:1025C000978B868B118E128E138E148EE7EEF1E0B0
:1025D0001682178210861186128613861486158637
:1025E00016861786108A118A128A138A148A158A07
:1025F0000895789484B5826084BD84B5816084BD7B
:1026000085B5826085BD85B5816085BD80916E0090
:10261000816080936E0010928100809181008260C1
:1026200080938100809181008160809381008091FE
:1026300080008160809380008091B10084608093ED
:10264000B1008091B00081608093B00080917A00E9
:10265000846080937A0080917A00826080937A000F
:1026600080917A00816080937A0080917A008068FE
:1026700080937A001092C10010922B0210922C02CB
:1026800010922D0210922E021092E9011092EA018E
:102690001092EB011092EC0168EB7BE080E090E09F
:1026A0000E9427108AE491E090932A0280932902E5
:1026B0000E94170E0E9461106093E9017093EA0175
:1026C0008093EB019093EC0162E171E0809129022B
:1026D00090912A020E94BA116AE070E080E090E0D6
:1026E0000E942710C1E0C093FD010E94170E60E018
:1026F00083E00E94C60F61E084E00E94C60F61E0A3
:102700008AE00E94C60F61E085E00E94C60F61E08A
:1027100082E00E94C60F61E084E00E94960F61E0B3
:102720008AE00E94960F61E085E00E94960F60E0CB
:1027300082E00E94960F82E58CBDCDBDCFB7F894A4
:1027400080914101811127C0E6EAFBE18491EAEB27
:10275000FBE19491E82FF0E0EE0FFF1FEE58FF4FE2
:10276000A591B491EC91E92321F461E08AE00E9403
:10277000960F61E08AE00E94C60F8CB580618CBD27
:102780008CB580648CBD61E08DE00E94C60F61E075
:102790008BE00E94C60F809141018F5F80934101C1
:1027A000CFBF60E082E00E94960F60E084E00E946C
:1027B000960F64E670E080E090E00E94271061E0F0
:1027C00084E00E94960F68EE73E080E090E00E9443
:1027D000271064E088E890E00E94EA1064E084E852
:1027E00090E00E94EA1062E082E890E00E94EA1025
:1027F00062E080E890E00E94EA1062E08EE790E0FC
:102800000E94EA1062E08CE790E00E94EA1084EFF8
:10281000882E99249394A12CB12C0E946110672BCF
:10282000682B692B41F40E946110623071058105AB
:10283000910508F40BC10E946110609346017093EA
:1028400047018093480190934901C0904201D09084
:102850004301E0904401F09045016C157D058E0523
:102860009F0540F4609342017093430180934401BB
:1028700090934501C0904201D0904301E090440103
:10288000F09045019B01AC012C193D094E095F09EF
:1028900069017A013AEFC316D104E104F10408F4A6
:1028A000D5C060934201709343018093440190939B
:1028B00045018092F5019092F601A092F701B09245
:1028C000F8011092F9011092FA011092FB01109296
:1028D000FC018091ED019091EE01A091EF01B0918A
:1028E000F0018093F1019093F201A093F301B09372
:1028F000F4010E9461106093ED017093EE018093EA
:10290000EF019093F0010E9461106093E9017093D0
:10291000EA018093EB019093EC010E9461106B013E
:102920007C0164E271E08091290290912A020E9468
:10293000BA112AE041E050E060E070E080912902A5
:1029400090912A020E94CF116BE271E080912902DE
:1029500090912A020E94BA112AE0B701A601809143
:10296000290290912A020E94CF116DE271E08091BC
:10297000290290912A020E94BA118091ED01909152
:10298000EE01A091EF01B091F001B701A601481B43
:10299000590B6A0B7B0B2AE08091290290912A0245
:1029A0000E94CF116DE271E08091290290912A027C
:1029B0000E94BA114091ED015091EE016091EF013A
:1029C0007091F0018091F1019091F201A091F301D9
:1029D000B091F401481B590B6A0B7B0B2AE08091E4
:1029E000290290912A020E94CF116FE271E080913A
:1029F000290290912A020E94BA110E946110AB0133
:102A0000BC012AE08091290290912A020E94CF11F4
:102A1000E0902902F0902A0261E371E0C7010E9470
:102A2000BA1161E271E0C7010E94BA1165E070E07D
:102A300080E090E00E9427100E9461106093ED01F9
:102A40007093EE018093EF019093F0016FE18CE8B9
:102A500090E00E94EA100E94AD1120E030E047ECC7
:102A600050E068E180E00E944E114AE058E068ECD6
:102A700070E088EC0E94911087EC0E94741080E254
:102A80000E9492118FEF0E94921183EC0E947410A9
:102A900080E20E94921168EB7BE080E090E00E946F
:102AA00027106FE18BEA90E00E94EA100E94AD11BE
:102AB00020E030E047EC50E068E180E00E944E11F9
:102AC0004AE058E068EC70E088EC0E9491100E94A7
:102AD000A41120E030E047EC50E068E180E00E9483
:102AE0004E114AE058E068EC70E088EC0E949110CA
:102AF000C0E025E430E04EE750E06DE086E00E9463
:102B00004E118C2F8370823051F0833059F0813018
:102B100019F04AE356E008C04AE654E005C04AE925
:102B200052E002C04AEC50E06AE370E080E40E94A8
:102B300091100E94A41164E670E080E090E00E9491
:102B40002710CF5FCC30A9F683EC0E94741080E28E
:102B50000E94921164EC79E080E090E00E942710DE
:102B60000E943F0F5ACEA1E21A2EAA1BBB1BFD01E9
:102B70000DC0AA1FBB1FEE1FFF1FA217B307E4075C
:102B8000F50720F0A21BB30BE40BF50B661F771FB4
:102B9000881F991F1A9469F7609570958095909594
:102BA0009B01AC01BD01CF010895EE0FFF1F059001
:102BB000F491E02D099481E090E0F8940C94E015F4
:042BC000F894FFCFB7
:102BC40000000000D60E3F0E6E0E1D0F9F0E7D0EF0
:102BD400910E564D4450565F317C315F564D4450F2
:102BE400560D0A00564D4450455F003A323A007C77
:082BF400005F564D44504500FE
:107800000C94343C0C94513C0C94513C0C94513CE1
:107810000C94513C0C94513C0C94513C0C94513CB4
:107820000C94513C0C94513C0C94513C0C94513CA4
:107830000C94513C0C94513C0C94513C0C94513C94
:107840000C94513C0C94513C0C94513C0C94513C84
:107850000C94513C0C94513C0C94513C0C94513C74
:107860000C94513C0C94513C11241FBECFEFD8E036
:10787000DEBFCDBF11E0A0E0B1E0ECE9FFE702C060
:1078800005900D92A230B107D9F712E0A2E0B1E065
:1078900001C01D92AD30B107E1F70E942D3D0C945F
:1078A000CC3F0C94003C982F959595959595959582
:1078B000905D8F708A307CF0282F295A8091C0000B
:1078C00085FFFCCF9093C6008091C00085FFFCCF60
:1078D0002093C6000895282F205DF0CF982F809127
:1078E000C00085FFFCCF9093C6000895EF92FF92F1
:1078F0000F931F93EE24FF2487018091C00087FD22
:1079000017C00894E11CF11C011D111D81E4E8164B
:1079100082E4F8068FE0080780E0180770F3E09132
:107920000401F091050109958091C00087FFE9CF1E
:107930008091C6001F910F91FF90EF9008950E94D3
:10794000763C982F8091C00085FFFCCF9093C600B5
:1079500091362CF490330CF09053892F089597555D
:10796000892F08951F930E949F3C182F0E949F3CCF
:107970001295107F810F1F9108951F93182F882350
:1079800021F00E94763C1150E1F71F9108951F935A
:10799000182F0E94763C803249F0809103018F5F5E
:1079A000809303018530C1F01F9108958091C0003C
:1079B00085FFFCCF84E18093C6008091C00085FFE5
:1079C000FCCF1093C6008091C00085FFFCCF80E102
:1079D0008093C6001F910895E0910401F091050184
:1079E00009951F9108950E94763C803241F0809164
:1079F00003018F5F80930301853081F008958091AA
:107A0000C00085FFFCCF84E18093C6008091C00058
:107A100085FFFCCF80E18093C6000895E0910401CA
:107A2000F09105010995089540E951E08823A1F0FE
:107A30002D9A28EE33E0FA013197F1F721503040CA
:107A4000D1F72D9828EE33E0FA013197F1F7215064
:107A50003040D1F7815061F708953F924F925F9285
:107A60006F927F928F929F92AF92BF92CF92DF924E
:107A7000EF92FF920F931F93CF93DF93000080E16B
:107A80008093C4001092C50088E18093C10086E015
:107A90008093C2005098589A259A81E00E94143D24
:107AA00024E1F22E9EE1E92E85E9D82E0FE0C02ECA
:107AB00010E1B12EAA24A394B1E49B2EA6E58A2E50
:107AC000F2E57F2EE0E26E2E79E4572E63E5462E36
:107AD00050E5352E0E94763C8033B1F18133B9F107
:107AE000803409F46FC0813409F476C0823409F41B
:107AF00085C0853409F488C0803531F1823521F1A3
:107B0000813511F1853509F485C0863509F48DC0BC
:107B1000843609F496C0843709F403C1853709F423
:107B200072C1863709F466C0809103018F5F80932C
:107B30000301853079F6E0910401F0910501099582
:107B40000E94763C803351F60E94F33CC3CF0E94E2
:107B5000763C803249F78091C00085FFFCCFF092DF
:107B6000C6008091C00085FFFCCF9092C600809136
:107B7000C00085FFFCCF8092C6008091C00085FFC9
:107B8000FCCF7092C6008091C00085FFFCCF609250
:107B9000C6008091C00085FFFCCF5092C600809146
:107BA000C00085FFFCCF4092C6008091C00085FFD9
:107BB000FCCF3092C6008091C00085FFFCCFB09210
:107BC000C60088CF0E94763C863808F4BDCF0E945C
:107BD000763C0E94F33C7ECF0E94763C803809F4CC
:107BE0009CC0813809F40BC1823809F43CC1883942
:107BF00009F48FC080E00E94C73C6CCF84E10E94F2
:107C0000BD3C0E94F33C66CF85E00E94BD3C0E94D3
:107C1000F33C60CF0E94763C809306010E94763C44
:107C2000809307010E94F33C55CF0E94763C80333D
:107C300009F41DC183E00E94BD3C80E00E94C73C66
:107C400049CF0E94763C809309020E94763C809343
:107C5000080280910C028E7F80930C020E94763C79
:107C6000853409F415C18091080290910902892B8D
:107C700089F000E010E00E94763CF801E85FFE4FDA
:107C800080830F5F1F4F80910802909109020817AF
:107C9000190788F30E94763C803209F045CF809125
:107CA0000C0280FF01C16091060170910701660F0F
:107CB000771F7093070160930601A0910802B091AD
:107CC00009021097C9F0E8E0F1E09B01AD014E0F09
:107CD0005F1FF999FECF32BD21BD819180BDFA9A17
:107CE000F99A2F5F3F4FE417F50799F76A0F7B1F4B
:107CF00070930701609306018091C00085FFFCCF5F
:107D0000F092C6008091C00085FFFCCFB092C60003
:107D1000E1CE83E00E94C73CDDCE82E00E94C73CFA
:107D2000D9CE0E94763C809309020E94763C8093D3
:107D300008028091060190910701880F991F909386
:107D40000701809306010E94763C853409F4A6C0A1
:107D500080910C028E7F80930C020E94763C8032D0
:107D600009F0B8CE8091C00085FFFCCFF092C6002C
:107D7000609108027091090261157105B9F140E046
:107D800050E080910C02A82FA170B82FB27011C0E2
:107D9000BB2309F45CC0E0910601F0910701319624
:107DA000F0930701E09306014F5F5F4F46175707B7
:107DB000E8F4AA2369F3F999FECF209106013091E6
:107DC000070132BD21BDF89A90B58091C00085FFB2
:107DD000FCCF9093C6002F5F3F4F30930701209355
:107DE00006014F5F5F4F4617570718F38091C00099
:107DF00085FDE5CE8091C00085FFF8CFE0CE81E023
:107E00000E94C73C67CE0E94763C803209F08CCE3F
:107E10008091C00085FFFCCFF092C6008091C00029
:107E200085FFFCCFE092C6008091C00085FFFCCFAB
:107E3000D092C6008091C00085FFFCCFC092C600E2
:107E40008091C00085FFFCCFB092C60043CEE09188
:107E50000601F091070194918091C00085FFFCCF4D
:107E60009093C6009CCF80E10E94C73C33CE0E9415
:107E7000763C0E94763C182F0E94763C112309F430
:107E800083C0113009F484C08FE00E94C73C22CE29
:107E900080910C02816080930C02E5CE80910C02EF
:107EA000816080930C0259CF809107018823880F4D
:107EB000880B8A2180930B02809106019091070123
:107EC000880F991F90930701809306018091080203
:107ED00080FF09C080910802909109020196909359
:107EE000090280930802F894F999FECF1127E091D6
:107EF0000601F0910701C8E0D1E08091080290915D
:107F00000902103091F40091570001700130D9F34B
:107F100003E000935700E89500915700017001308D
:107F2000D9F301E100935700E89509901990009169
:107F3000570001700130D9F301E000935700E89534
:107F40001395103498F011270091570001700130FB
:107F5000D9F305E000935700E895009157000170B0
:107F60000130D9F301E100935700E895329602976A
:107F700009F0C7CF103011F00296E5CF112480919F
:107F8000C00085FFB9CEBCCE8EE10E94C73CA2CD19
:0C7F900085E90E94C73C9ECDF894FFCF0D
:027F9C00800063
:040000030000780081
:00000001FF